:020000040000FA
:02000000512885
:0800080009000614482006104F
:100010005030412048204930412048204330412081
:100020004820313041204820363041204820463099
:10003000412048203630412048203230412048209D
:1000400038304120482041304120482006144820C3
:1000500006102A288C1E2A2831203520A20045208F
:100060002A2830301A02A200080022088207003431
:1000700080344034C0342034A0346034E034103450
:10008000903499000C1E42280800220886000800BF
:10009000FF30A100FF30A000A00B4C28A10B4A2884
:1000A00008008316850102308600981698141815EA
:1000B00019309900831207309F0098171816850190
:0400C0008601052888
:02400E00183F59
:00000001FF
