:020000040000FA
:020000004E2888
:0800080009000614382006105F
:100010008615382086118C12061E13208C1E0C2883
:100020001C201F200C283130172038200800990090
:100030000C1E1828452008001A08A30008003130BB
:1000400023060319302832302306031932283330AF
:1000500023060319342834302306031936280800F0
:10006000061408000610080086150800861108000E
:100070002430A200A630A100A630A000A00B3E288C
:10008000A10B3C28A20B3A2808003230A100C7304F
:10009000A000A00B4928A10B4728080006158316CD
:1000A0009230860085019816981418154C309900E6
:0C00B000831207309F00981718160528CF
:02400E000A3F67
:00000001FF
