:020000040000FA
:02000000432893
:0800080009008615061186109F
:1000100006178612061205180528362036203620C7
:10002000112886110615861006178612061236202C
:1000300019288611061186140613861206168519CC
:1000400019283620362036202528861106118614D8
:1000500006138616061236200528FF30A100FF3051
:10006000A000A00B3128A10B2F2808001830A200F7
:10007000A630A100A630A000A00B3C28A10B3A2876
:10008000A20B38280800831609308500003086004E
:0C009000831207309F00850186010528BF
:02400E00183F59
:00000001FF
