:020000040000FA
:020000006D2869
:08000800090006146420061033
:100010006420A30B05280C288C1E1D28051C132802
:10002000851C13280C28453099000C1E15286420C7
:100030000C2830301A02A400090019202408820775
:100040000C2846280C282F280C280C280C282A2895
:100050000C285F28061664200612A4010C2806123C
:1000600064200616A4010C280530A300061764209E
:1000700064206420642064200613642064206420CB
:1000800064206420A30B3628A4010C28861586164C
:1000900006176420642086120613642064208C1ED8
:1000A0005228462819202408820746284628462830
:1000B0004628462846284628462846285F2886118E
:1000C00086120613A4010C28FF30A100FF30A00007
:1000D000A00B6828A10B6628080083160230860052
:1000E000033085008C169816981418154C3099001A
:1000F000831207309F00981718160B178B170230C2
:0C01000086008501A4010530A30005283D
:02400E000A3F67
:00000001FF
