:1000000000308A00DA290000FF00030E8301A100FE
:100010000A08A0008A010408A2007708A300780853
:10002000A4007908A5007A08A6007B08A70083131E
:1000300083128B1D1D280B1836288C308400801EDF
:1000400023288C1A3928220884002308F700240862
:10005000F8002508F9002608FA002708FB00200808
:100060008A00210E8300FF0E7F0E09008A110A12FA
:1000700060288A110A1279280A108A100A11820748
:1000800028340C34013406340A108A100A1182070D
:100090000C3420342034203441344E34443452342F
:1000A0004F34493444342034523445344D344F3481
:1000B0005434453420342034203420342034003467
:1000C000831606168312061EAA148316861683123A
:1000D000861E2A15831606178312061FAA15831675
:1000E00086178312861F2A160B100B108A110A120C
:1000F00023288C1E79281A08AB008B102B08243C6F
:10010000031D8428A9019A282B080D3C031D8F2864
:10011000103029078400831780012A149A2829089F
:10012000593C031C9A2810302907840083172B0898
:100130008000A90A8C128A110A1223286D308400CB
:10014000831700080319B1280130F800F701F70BF5
:10015000A728F80BA6289730F700F70BAD28800BDF
:10016000A428003483160317140EF039F7000F305B
:100170008312031308057704880000000814C028C0
:10018000081000348810F030831688008312081598
:100190000000081400000808080E0F398316031722
:1001A00094008312031308100000081400000808CC
:1001B000080E0F39831603179300831203130810D8
:1001C0000030831688000317140EF700F030F7058F
:1001D00077081304F80078089300931FF22883121D
:1001E0000313C3281118F9288312031388108316E8
:1001F0000317111C00298312031388148316031795
:10020000000083120313081100000810831603175F
:10021000120E93000F3093051308940083120313FA
:10022000B2208316031712080F399300940083122B
:100230000313B22000340030831688008312881024
:10024000081108100F300317ED0003139E20013032
:100250000317EA006A08033C031C3C290330831699
:10026000940083120313B22005300317ED0003132B
:100270009E200317EA0A2A2902308316940083126B
:100280000313B2200317EA016A08033C031C59292F
:100290006A0803133C200317EB00831691018312B5
:1002A0006B088316920083120313C2200317EA0A15
:1002B000442903138A110A12362AAA102A11AA11F4
:1002C0002A12003403176E08FC3E03187A29043EF4
:1002D00003138A290317EF017A2940300317EF002F
:1002E0007A2914300317EF007A2954300317EF00EE
:1002F0007A29031701306D02EF076F0880388316E3
:10030000900091011008920083120313C2208A11F9
:100310000A12D1290A148A100A1182076A296D2942
:100320007129752903176C080C3A031303199F29C7
:10033000063A0319AE29023A0319BC29C5298316C6
:10034000031791010130920083120313C22002307F
:100350000317ED0003139E20A801D129A80A28083D
:10036000033C031CA80101300317ED000313280808
:100370000317EE000313622983160317910110304F
:10038000920083120313C220D12901308316031770
:10039000910083126C088316920083120313C2200B
:1003A000D12900342A10A9010317900103138A11DF
:1003B0000A12832B840183131F30830507308316B1
:1003C0009900A230980090308312980083161F1471
:1003D0009F141F159F1107309C008312A801FF3046
:1003E000AD008316091283129412AD122D088316E4
:1003F000870083122D162D08831687008312AD11F6
:100400002D08831687000130831294000030831674
:1004100094000108C7390838810083129001003028
:10042000F8009200FF308316920007309C00050808
:100430000330F700F70B1A2A1D2A1C0883120D132C
:100440002D152D088316870083129701AD142D08F2
:100450008316870083129D0183169D0183128B15DD
:1004600083168C16C03083128B041B292A105D2141
:100470000317EA016A08031344200317EA0AF70086
:10048000EC0003139221173003176A02031D3A2A66
:100490000313AA1C712A2030AA06AA1A512A061090
:1004A000522A061483160610243083120C1E562A74
:1004B000990031300C1E5A2A990031300C1E5E2AE8
:1004C0009900AA1E682A31300C1E642A99006C2AF1
:1004D00030300C1E692A99000D300C1E6D2A9900CF
:1004E0005D212A1D992A4030AA062A1B792A8610E6
:1004F0007A2A861483168610243083120C1E7E2AD4
:10050000990031300C1E822A990032300C1E862A46
:1005100099002A1F902A31300C1E8C2A9900942AA7
:1005200030300C1E912A99000D300C1E952A99002E
:100530005D21AA1DC12A8030AA06AA1BA12A061184
:10054000A22A061583160611243083120C1EA62A31
:10055000990031300C1EAA2A990033300C1EAE2AA5
:100560009900AA1FB82A31300C1EB42A9900BC2A5F
:1005700030300C1EB92A99000D300C1EBD2A99008E
:100580005D212A1EE92A0130AC062C18C92A8611E1
:10059000CA2A861583168611243083120C1ECE2A91
:1005A000990031300C1ED22A990034300C1ED62A04
:1005B00099002C1CE02A31300C1EDC2A9900E42A18
:1005C00030300C1EE12A99000D300C1EE52A9900EE
:1005D0005D212A1C832B03171008313A03130319DA
:1005E000F52A033A0319552B822B313003171102D8
:1005F000FC3E0318532B043E0313852B03171208EC
:10060000313C031D0B2B03130614831606108312B3
:10061000AA16112B03170313061083160610831254
:10062000AA120317532B03171208313C031D202B6A
:10063000031386148316861083122A17262B03179A
:10064000031386108316861083122A130317532B65
:1006500003171208313C031D352B031306158316AF
:1006600006118312AA173B2B0317031306118316D7
:1006700006118312AA130317532B03171208313CD8
:10068000031D4A2B031386158316861183122C141F
:10069000502B0317031386118316861183122C1017
:1006A0000317532B03170313822B03171108313A37
:1006B000031303195F2B033A0319802B812B0C3092
:1006C0000317EC00031392211230840083170030CB
:1006D000000403197F2B0317EB010408EA006B10D9
:1006E000831B6B140008EC000313922103176A08A4
:1006F000840083136B188317840A0313672B812BE1
:10070000812B822BD229492A63000A148A140A11E8
:0A0710008207FE2A132B282B3D2B35
:02400E00711E21
:00000001FF
;PIC16F877A
