:020000040000FA
:0200000088284E
:08000800090025308400861177
:100010000616861206130C288C1E0C281320182096
:100020001D205B280C281A08A3002308A200080042
:10003000220899000C1E1A2808003030A20208007D
:100040002530840022088000840A080086110617E3
:10005000861606167F207F207F207F2006138612BB
:100060007F207F207F207F208C1E262813201820B1
:100070001D20672886150613861206120C280617FF
:100080007F207F207F207F2006137F207F207F20FE
:100090007F208C1E3F28132018201D207328061354
:1000A0000C2886110613861206160C2886150613D0
:1000B000861206120C28220882070C2826283F28C0
:1000C00051280C280C284F2856280C283A2822089A
:1000D0008207262826282628262826282628262875
:1000E000262826283A28220882073F2826283F2843
:1000F00051283F283F284F2856283F283A28FF30CC
:10010000A100FF30A000A00B8328A10B81280800CC
:100110008316850102308600981698141815193038
:100120009900831207309F009817181685018601E1
:020130000528A0
:02400E00183F59
:00000001FF
